:100000000C9463000C948B000C948B000C94D3071D
:100010000C94D3070C94D3070C948B000C948B0096
:100020000C948B000C948B000C948B000C948B0024
:100030000C948B000C948B000C948B000C948B0014
:100040000C94C3020C948B000C94D1040C94AB045C
:100050000C948B000C948B000C948B000C948B00F4
:100060000C948B000C948B000000000024002700EF
:100070002A0000000008000201000003040700003D
:1000800000000000000000000000250028002B00F8
:1000900000000000230026002900040404040404D6
:1000A0000404020202020202030303030303010227
:1000B00004081020408001020408102001020408F6
:1000C0001020500D460D11241FBECFEFD8E0DEBF2B
:1000D000CDBF13E0A0E0B1E0E2EAF2E202C0059099
:1000E0000D92AE32B107D9F724E0AEE2B3E001C021
:1000F0001D92A134B207E1F710E0C2E6D0E004C0DF
:100100002197FE010E940D0FC136D107C9F70E9449
:10011000EB0B0C9444110C9400000895CF92DF92E5
:10012000EF92FF920F931F93CF93DF936C017A01AD
:100130008B01C0E0D0E0CE15DF0589F0D8016D91CC
:100140008D01D601ED91FC910190F081E02DC60169
:100150000995892B11F47E0102C02196ECCFC701CD
:10016000DF91CF911F910F91FF90EF90DF90CF9093
:100170000895FC01538D448D252F30E0842F90E0AD
:10018000821B930B541710F0CF9608950197089592
:10019000FC01918D828D981761F0828DDF01A80F8F
:1001A000B11D5D968C91928D9F5F9F73928F90E0B1
:1001B00008958FEF9FEF0895FC01918D828D981720
:1001C00031F0828DE80FF11D858D90E008958FEF5D
:1001D0009FEF0895FC01918D228D892F90E0805C26
:1001E0009F4F821B91098F73992708958BE793E0A6
:1001F0000E94EA0021E0892B09F420E0822F089573
:10020000FC01848DDF01A80FB11DA35ABF4F2C91B3
:10021000848D90E001968F739927848FA689B78982
:100220002C93A089B1898C9180648C93938D848D5B
:10023000981306C00288F389E02D80818F7D80832A
:100240000895EF92FF920F931F93CF93DF93EC01EA
:1002500081E0888F9B8D8C8D981305C0E889F98982
:10026000808185FD24C0F62E0B8D10E00F5F1F4F9F
:100270000F731127E02E8C8DE8120CC00FB607FC0F
:10028000FACFE889F989808185FFF5CFCE010E94F8
:100290000001F1CF8B8DFE01E80FF11DE35AFF4FF6
:1002A000F0820B8FEA89FB898081806207C0EE892A
:1002B000FF896083E889F98980818064808381E097
:1002C00090E0DF91CF911F910F91FF90EF900895F3
:1002D000CF93DF93EC01888D8823C9F0EA89FB89ED
:1002E000808185FD05C0A889B9898C9186FD0FC0E4
:1002F0000FB607FCF5CF808185FFF2CFA889B989B9
:100300008C9185FFEDCFCE010E940001E7CFDF91F8
:10031000CF91089580E090E0892B29F00E94F600AB
:1003200081110C940000089520911A0430911B044F
:100330002817390771F490911804809119049817BF
:1003400041F0E0911804F0E0EE5CFC4F808190E019
:1003500008958FEF9FEF089508951F93CF93DF9334
:10036000DC015C962D913C915D972115310539F4A6
:1003700081E090E013969C938E9312973DC0519626
:10038000ED91FC91529750969C915097892F8095B2
:100390001FB75E964C915E9741FB772770F941FD40
:1003A0006095F8944081772311F0492B01C04823D0
:1003B0004083E9012197F1F748E0508160FF02C0D6
:1003C000592B01C058235083E9012197F1F7669515
:1003D000415099F7772321F090818923808303C0CE
:1003E0008081982B90831FBF5C968D919C915D9727
:1003F0000197F1F721E030E0C901DF91CF911F9122
:10040000089520911A0430911B042817390771F4BC
:10041000809119042091180490E0805C9F4F821B0A
:10042000910960E470E00E94E50E089580E090E09C
:10043000089520911A0430911B0428173907B9F444
:100440009091180480911904981789F0E09118048C
:10045000F0E0EE5CFC4F80812091180430E02F5FCB
:100460003F4F2F7333272093180490E008958FEFA8
:100470009FEF0895089580E090E008950E940A118A
:100480000F931F93CF93DF93EC018881998100979D
:1004900029F02A813B812617370788F48B016F5F8B
:1004A0007F4F0E944010009761F0998388831B83DF
:1004B0000A832C813D81232B11F4FC01108281E001
:1004C00001C080E0DF91CF911F910F910895EF92CD
:1004D000FF920F931F93CF93DF93EC017B018A016F
:1004E000BA010E9440022881398181110DC0211575
:1004F000310519F0C9010E94A80F198218821D82C6
:100500001C821B821A8206C01D830C83B701C9019D
:100510000E942311CE01DF91CF911F910F91FF9087
:10052000EF9008953FB7F894809177039091780306
:10053000A0917903B0917A0326B5A89B05C02F3FFF
:1005400019F00196A11DB11D3FBFBA2FA92F982FF9
:100550008827820F911DA11DB11DBC01CD0142E074
:10056000660F771F881F991F4A95D1F708952FB7F7
:10057000F894609173037091740380917503909166
:1005800076032FBF08951F920F920FB60F9211247A
:100590002F933F938F939F93AF93BF938091730358
:1005A00090917403A0917503B0917603309172031A
:1005B00023E0230F2D3720F40196A11DB11D05C0A6
:1005C00026E8230F0296A11DB11D2093720380938C
:1005D000730390937403A0937503B0937603809193
:1005E000770390917803A0917903B0917A030196F3
:1005F000A11DB11D8093770390937803A093790395
:10060000B0937A03BF91AF919F918F913F912F91BA
:100610000F900FBE0F901F901895CF93DF93FC01A2
:1006200024813581232B71F0FB01DC01CD91DC911C
:1006300060817181CE010E942A11009719F08C1BF4
:100640009D0B02C08FEF9FEFDF91CF910895EF9246
:10065000FF920F931F93CF93DF9300D0CDB7DEB7F8
:100660008C0169831A82FC01E480F580FFEFEF1AA8
:10067000FF0AB7010E944002882381F0F80120811F
:10068000318184819581BE016F5F7F4F820F931FFF
:100690000E942311F801F582E48281E00F900F900F
:1006A000DF91CF911F910F91FF90EF9008950F93DD
:1006B0001F93CF93DF938C01EB01FC01808191812B
:1006C0000097B1F0688179816115710579F04281F7
:1006D00053812C813D814217530740F00E94231122
:1006E0008C819D81F8019583848313C00E94A80F9B
:1006F00088819981F801918380838A819B8193838A
:1007000082838C819D8195838483198218821B82C8
:100710001A821D821C82DF91CF911F910F91089543
:10072000FC01808191810C94A80FFB01DC011196E2
:100730001C921E9213961C921E92129715961C9252
:100740001E9214978617970749F060817181611591
:10075000710521F0448155810C9467020895FC01D4
:100760001182108213821282158214826115710522
:1007700051F0FB0101900020E9F73197AF01461BD2
:10078000570B0C9467020895BF92CF92DF92EF92BD
:10079000FF920F931F93CF93DF937C016B01EA01CC
:1007A00089012417350720F48D2FE901042F182F14
:1007B0006CEA71E0C7010E94AF03D60114968D91D7
:1007C0009C911597C817D907C8F58017910708F4A9
:1007D0008C01D601ED91FC911197E00FF11FB080D3
:1007E00010824D915C91BA016C0F7D1F61157105EE
:1007F00061F0FB0101900020E9F73197AF01461B42
:10080000570BC7010E94670213C0F70180819181D5
:10081000009711F00E94A80FD70111961C921E920A
:1008200015961C921E92149713961C921E92129764
:10083000D601ED91FC91E00FF11FB082C701DF916D
:10084000CF911F910F91FF90EF90DF90CF90BF90CD
:100850000895DC01ED91FC91DB0114964D915C91C2
:1008600015976D917C910280F381E02D09946115BB
:10087000710579F0FB0101900020E9F73197AF0194
:10088000461B570BDC01ED91FC910280F381E02DBA
:10089000099480E090E008954F925F926F927F926A
:1008A000EF92FF920F931F93CF93DF93CDB7DEB7F5
:1008B000A1970FB6F894DEBF0FBECDBF7C01FA0141
:1008C000CB0119A2223008F42AE08E010F5D1F4FE0
:1008D000422E512C612C712CBF01A30192010E9468
:1008E000C30EF901CA01015011096A3014F4605DA8
:1008F00001C0695CD8016C93232B242B252B61F755
:10090000B801C7010E943704A1960FB6F894DEBF64
:100910000FBECDBFDF91CF911F910F91FF90EF9050
:100920007F906F905F904F9008950F931F93CF9398
:10093000DF93EC010E9437048C016AEA71E0CE017A
:100940000E943704800F911FDF91CF911F910F916B
:1009500008950C9437041F920F920FB60F92112432
:100960002F933F934F935F936F937F938F939F93B7
:10097000AF93BF93EF93FF938BE793E00E94000147
:10098000FF91EF91BF91AF919F918F917F916F9167
:100990005F914F913F912F910F900FBE0F901F903D
:1009A00018951F920F920FB60F9211242F938F93C9
:1009B0009F93EF93FF93E0918B03F0918C038081E1
:1009C000E0919103F091920382FD12C09081809199
:1009D00094038F5F8F7320919503821751F0E091FC
:1009E0009403F0E0E558FC4F958F8093940301C089
:1009F0008081FF91EF919F918F912F910F900FBE6A
:100A00000F901F901895CF93DF93EC018881998107
:100A1000DC01ED91FC910084F185E02D099518161B
:100A2000190654F488819981DC01ED91FC910284CE
:100A3000F385E02D0995EACFDF91CF9108952F92AC
:100A40003F924F925F926F927F928F929F92AF925E
:100A5000BF92CF92DF92EF92FF920F931F93CF93AB
:100A6000DF93CDB7DEB7C251D2400FB6F894DEBFE8
:100A70000FBECDBF8E010F5F1F4F80E092E0D80107
:100A8000FC011D923197E9F76DEA71E0CE018F5FAD
:100A90009D4F0E94AF03CE018F5F9D4F0E94400A81
:100AA000F82ECE018F5F9D4F0E949003FF2009F426
:100AB0006EC08CE194E00E9403056DEB71E08091C3
:100AC0001C0490911D040E94A904E0901C04F09065
:100AD0001D042AE042E850E060E070E0C7010E9497
:100AE0004C046AEA71E0C7010E94370469EC71E0C6
:100AF000CE018F5F9D4F0E94AF0348E853E160E055
:100B000070E0CE018F5F9D4F0E94A809F82ECE01A4
:100B10008F5F9D4F0E949003FF20B1F18CE194E024
:100B20000E9403053AE2E32E31E0F32E80911C048B
:100B300090911D04D7016D917D01DC01ED91FC9137
:100B40000190F081E02D0995BCEAEB16B1E0FB06BF
:100B500069F76BEC71E0CE018F5F9D4F0E94AF0390
:100B600040E157E260E070E0CE018F5F9D4F0E9450
:100B7000A809F82ECE018F5F9D4F0E949003FF20A1
:100B800019F063ED71E005C062EE71E002C062EF42
:100B900071E08BE793E00E9495046CEA71E0CE016E
:100BA000895F9D4F0E94AF030E94B702C35FDD4F74
:100BB000688379838A839B83CD50D2400E94B70299
:100BC000DC01CB01C35FDD4F288139814A815B8124
:100BD000CD50D240821B930BA40BB50B80319742B2
:100BE000A105B10508F0B7C080911C0490911D04C7
:100BF000DC01ED91FC910084F185E02D099518163A
:100C000019068CF480911C0490911D04DC01ED9177
:100C1000FC910284F385E02D0995682FCE01895F50
:100C20009D4F0E94270363E072E0CE018F5F9D4FCE
:100C30000E94AF03BE016F5F7D4FCE01895F9D4F64
:100C40000E940D036C01CE018F5F9D4F0E949003A7
:100C5000BFEFCB16DB0609F4B1CFE5E0CE0ED11C19
:100C6000C55FDD4FE880F980CB50D240CE14DF0461
:100C700098F4C95FDD4F88809980C750D2406AE3FD
:100C800070E0C4018C0D9D1D0E941811009721F089
:100C90005C01A818B90803C0AA24AA94BA2C25019B
:100CA0000B2C000C66087708FFEF4F165F066F06E7
:100CB0007F0609F483CFCE14DF0498F4C95FDD4FBB
:100CC00088809980C750D2406CE270E0C4018C0DDE
:100CD0009D1D0E941811009721F07C01E818F90869
:100CE00003C0EE24EA94FE2CC7010F2C000CAA0BC3
:100CF000BB0B8F3F2FEF9207A207B207A9F1841514
:100D00009505A605B70584F59701A601BE01695FA3
:100D10007D4FCE018F5F9D4F0E94C403CF5FDD4F9B
:100D200088819981C150D240009719F00E94500EDD
:100D300001C060E0CE018F5F9D4FCF5EDD4F6883C5
:100D4000C151D2400E949003CF5EDD4F6881C151F6
:100D5000D240653020F0C12CD12C76015FC0A701B4
:100D60004F5F5F4F950102C09501A601BE01695F0B
:100D70007D4FCE018F5F9D4F0E94C403CF5FDD4F3B
:100D800088819981C150D240009729F00E94500E6D
:100D90006B017C0103C0C12CD12C7601CE018F5F89
:100DA0009D4F0E9490031C141D041E041F040CF48C
:100DB000BEC0D1CFC814D904EA04FB0410F5809159
:100DC0001C0490911D04DC01ED91FC910284F385DB
:100DD000E02D0995F801EC0DFD1D8083BFEFCB1AC6
:100DE000DB0AEB0AFB0A80911C0490911D04DC01D4
:100DF000ED91FC910084F185E02D099518161906F6
:100E0000CCF23C2D2D2D3701C814D904EA04FB0483
:100E100009F0A3C08CE194E00E940305CE01895F34
:100E20009D4F0E949003C0922E03D0922F03E09218
:100E30003003F0923103CD28CE28CF2879F169E034
:100E400072E08BE793E00E94A904C12CD12C7601BB
:100E500080912E0390912F03A0913003B091310324
:100E6000C816D906EA06FB0698F4D8016D918D01E3
:100E7000E0917B03F0917C030190F081E02D8BE702
:100E800093E00995BFEFCB1ADB0AEB0AFB0AE0CF30
:100E900064E172E08BE793E00E94A9048CE194E0A6
:100EA0000E94030568E172E080911C0490911D048A
:100EB0000E94950460ED71E0CE018F5F9D4F0E940E
:100EC000AF0348E853E160E070E0CE018F5F9D4FD3
:100ED0000E94A809182FCE018F5F9D4F0E9490039A
:100EE000112319F064E272E002C065E372E08BE75F
:100EF00093E00E9495040E946308CE5EDD4F0FB61A
:100F0000F894DEBF0FBECDBFDF91CF911F910F913F
:100F1000FF90EF90DF90CF90BF90AF909F908F9019
:100F20007F906F905F904F903F902F900895460173
:100F30005701E1E0CE16E2E0DE06E104F10428F01C
:100F4000812C82E0982EA12CB12C0E94B7021B01AB
:100F50002C0130E020E0612C712CCE5EDD4F288327
:100F6000C251D240CF5EDD4F3883C151D2400E9482
:100F7000B702DC01CB0182199309A409B509CE5E41
:100F8000DD4F2881C251D240CF5EDD4F3881C15143
:100F9000D240883B9B40A105B10508F0DCCEC32EB2
:100FA000D22E730120CF1F920F920FB60F921124F1
:100FB0002F933F934F935F936F937F938F939F9361
:100FC000AF93BF93EF93FF93E0911A04F0911B044A
:100FD000309709F451C0968DA685B785858591FF18
:100FE00004C09C91892329F447C09C91892309F06E
:100FF00043C0A389B4899C918589809589238C936A
:10100000868997890197F1F7608D718DA685B785DF
:10101000558538E020E0CB010197F1F7822F90E071
:1010200095958795282F4C91452309F020683150DC
:1010300091F7868D81FD20958091190490E00196AD
:101040008F73992730911804381749F0A09119042B
:10105000B0E0AE5CBC4F2C938093190403C0868D26
:101060008160868F828D938D0197F1F7A389B48972
:101070009C918589892B8C93FF91EF91BF91AF91C2
:101080009F918F917F916F915F914F913F912F91A0
:101090000F900FBE0F901F901895E0911A04F091D9
:1010A0001B04E817F90769F4A389B4899C91858921
:1010B000809589238C9310921B0410921A0481E06E
:1010C000089580E008958F929F92AF92BF92CF9241
:1010D000DF92EF92FF920E9492024B015C0180E24C
:1010E000C82E8EE4D82EE12CF12C0E949202DC0155
:1010F000CB0188199909AA09BB09883E9340A1052B
:10110000B10558F021E0C21AD108E108F10888EED3
:10111000880E83E0981EA11CB11CC114D104E10407
:10112000F10419F7FF90EF90DF90CF90BF90AF9050
:101130009F908F9008954F925F926F927F928F92BF
:101140009F92AF92BF92CF92DF92EF92FF920F9356
:101150001F93CF93DF93EC015B014A016801790192
:101160006CEA71E00E94AF030E94B7022B013C01C0
:101170000E94B702DC01CB0184199509A609B709C1
:101180008C159D05AE05BF0560F580911C049091FE
:101190001D04DC01ED91FC910084F185E02D0995A1
:1011A0001816190694F480911C0490911D04DC011A
:1011B000ED91FC910284F385E02D0995882329F3B4
:1011C000682FCE010E942703E0CFB501CE010E9417
:1011D0000D03019631F4B401CE010E940D03019676
:1011E00039F2CE01DF91CF911F910F91FF90EF90D7
:1011F000DF90CF90BF90AF909F908F907F906F9037
:101200005F904F9008950F931F93CF93DF93CDB7C7
:10121000DEB7A4970FB6F894DEBF0FBECDBF8C012A
:10122000CE0149960E949503B801CE014F960E94C7
:1012300095036CEA71E0CE0143960E94AF038CE106
:1012400094E00E9403056EEE72E080911C04909180
:101250001D040E94A904BE01615E7F4F80911C04A1
:1012600090911D040E94290469EF72E080911C0492
:1012700090911D040E94A904BE01675E7F4F80917A
:101280001C0490911D040E9429046BEF72E0809170
:101290001C0490911D040E9495046DEF72E0CE0134
:1012A00007960E94AF0360ED71E0CE0101960E94A7
:1012B000AF0300E117E220E030E0AE01495F5F4F8D
:1012C000BE016F5F7F4FCE010D960E949B08BE014D
:1012D000635F7F4FCE0143960E945703CE010D9668
:1012E0000E949003CE0101960E949003CE010796C2
:1012F0000E94900360ED71E0CE0101960E94AF0361
:10130000BE016F5F7F4FCE0143960E940D038C019B
:10131000CE0101960E949003CE0143960E94900355
:10132000CE014F960E949003CE0149960E949003F1
:1013300081E00F3F1F4F09F480E0A4960FB6F894A8
:10134000DEBF0FBECDBFDF91CF911F910F910895EA
:101350004F925F926F927F928F929F92AF92BF92C5
:10136000EF92FF920F931F93CF93DF93CDB7DEB72A
:1013700062970FB6F894DEBF0FBECDBF7C014A0165
:101380005B016CEA71E0CE010D960E94AF03B701DC
:10139000CE0107960E9495036CEA71E0CE0101969A
:1013A0000E94AF030E94B7022B013C010E94B702CA
:1013B0008B019C010419150926093709081519051F
:1013C0002A053B0550F580911C0490911D04DC0119
:1013D000ED91FC910084F185E02D09951816190610
:1013E0009CF480911C0490911D04DC01ED91FC9112
:1013F0000284F385E02D0995882329F3682FCE0117
:1014000001960E942703DFCFBE01695F7F4FCE01A7
:1014100001960E940D03019649F2BE016F5F7F4F56
:10142000CE010D960E945703CE0101960E949003B3
:10143000CE0107960E949003B701CE010D960E943F
:101440000D038C01CE010D960E94900381E00F3FA9
:101450001F4F09F480E062960FB6F894DEBF0FBE0E
:10146000CDBFDF91CF911F910F91FF90EF90BF9073
:10147000AF909F908F907F906F905F904F90089566
:10148000CF92DF92EF92FF921F93CF93DF93CDB76E
:10149000DEB7AA970FB6F894DEBF0FBECDBFBC0172
:1014A000CE014F960E94950362E073E0CE018596CF
:1014B0000E94AF036CEA71E0CE0149960E94AF032F
:1014C0008CE194E00E94030566E073E080911C04C7
:1014D00090911D040E94A904BE016B5D7F4F809115
:1014E0001C0490911D040E94290469EF72E0809110
:1014F0001C0490911D040E94A904BE01615E7F4FEF
:1015000080911C0490911D040E94290464E173E001
:1015100080911C0490911D040E94A904E0901C0479
:10152000F0901D042AE040E550E060E070E0C70163
:101530000E944C046AEA71E0C7010E94370467E127
:1015400073E0CE010D960E94AF0367E273E0CE0117
:1015500007960E94AF0360ED71E0CE0101960E94F4
:10156000AF036CEA71E0CE0143960E94AF030E9484
:10157000B7026B017C010E94B702DC01CB018C1920
:101580009D09AE09BF0980319742A105B10550F50B
:1015900080911C0490911D04DC01ED91FC9100846C
:1015A000F185E02D0995181619069CF480911C040C
:1015B00090911D04DC01ED91FC910284F385E02DF6
:1015C0000995882329F3682FCE0143960E942703AB
:1015D000DFCFBE016F5F7F4FCE0143960E940D03A8
:1015E000019639F1BE016D5E7F4FCE0149960E9492
:1015F0005703CE0143960E949003CE0101960E94AC
:101600009003CE0107960E949003CE010D960E9492
:10161000900360ED71E0CE0107960E94AF03BE011A
:10162000695F7F4FCE0149960E940D03019659F5DF
:1016300014C0BE01695F7F4FCE0143960E940D0327
:10164000019681F6BE01635F7F4FCE0143960E94F3
:101650000D03019609F48FCFC5CF67E173E0CE018A
:1016600001960E94AF03BE016F5F7F4FCE01499686
:101670000E940D0311E0019609F410E0CE010196DD
:101680000E94900301C011E0CE0107960E949003D2
:10169000CE0149960E949003CE0185960E94900348
:1016A000CE014F960E949003812FAA960FB6F89410
:1016B000DEBF0FBECDBFDF91CF911F91FF90EF90A6
:1016C000DF90CF90089590E0FC01EE58FF4F3491E9
:1016D000FC01E255FF4F2491FC01E656FF4FE491D7
:1016E000EE2309F43BC0332339F1333091F038F461
:1016F0003130A9F0323001F584B58F7D12C037301A
:1017000091F03830A1F03430B9F4809180008F7DB1
:1017100003C0809180008F77809380000DC084B5D6
:101720008F7784BD09C08091B0008F7703C080910E
:10173000B0008F7D8093B000F0E0EE0FFF1FEA57FE
:10174000FF4FA591B4918FB7F894EC91611103C04C
:1017500020952E2301C02E2B2C938FBF0895CF935D
:10176000DF9390E0FC01E255FF4F2491FC01E65627
:10177000FF4F8491882361F190E0880F991FFC014D
:10178000E859FF4FC591D491FC01EA57FF4FA5914D
:10179000B491611109C09FB7F89488812095822384
:1017A0008883EC912E230BC0623061F49FB7F894CC
:1017B0003881822F809583238883EC912E2B2C9364
:1017C0009FBF06C08FB7F894E8812E2B28838FBF68
:1017D000DF91CF910895CF93DF93CDB7DEB76897B0
:1017E0000FB6F894DEBF0FBECDBF789484B582608B
:1017F00084BD84B5816084BD85B5826085BD85B5B5
:10180000816085BD80916E00816080936E00109232
:1018100081008091810082608093810080918100AD
:10182000816080938100809180008160809380003E
:101830008091B10084608093B1008091B00081609C
:101840008093B00080917A00846080937A008091C8
:101850007A00826080937A0080917A008160809320
:101860007A0080917A00806880937A001092C1009B
:1018700061E083E00E94AF0B61E085E00E94AF0B66
:1018800061E086E00E94AF0B61E08DE00E94AF0B4B
:1018900061E083E00E94AF0B61E083E00E94630B94
:1018A00061E085E00E94AF0B61E085E00E94630B80
:1018B00061E086E00E94AF0B61E086E00E94630B6E
:1018C000E0918B03F0918C0382E08083E0918703A9
:1018D000F09188031082E0918903F0918A038FECE4
:1018E000808310929303E0918F03F091900386E040
:1018F0008083E0918D03F0918E03808180618083ED
:10190000E0918D03F0918E03808188608083E09167
:101910008D03F0918E03808180688083E0918D0338
:10192000F0918E0380818F7D808367E472E08BE786
:1019300093E00E94950466E672E08BE793E00E94D4
:10194000950469E772E0CE0101960E94AF036FE74C
:1019500072E0CE0107960E94AF03BE016F5F7F4F1A
:10196000CE0107960E940309182FCE0107960E9408
:101970009003CE0101960E949003112309F478C0D0
:1019800066E872E08BE793E00E94A9046CEA71E0DC
:10199000CE0143960E94AF038CE194E00E940305C0
:1019A00068E972E080911C0490911D040E94A904D2
:1019B00000911C0410911D042AE040E050E0BA019F
:1019C000C8010E944C046AEA71E0C8010E94370411
:1019D00063EA72E0CE0107960E94AF0360ED71E00A
:1019E000CE0101960E94AF0308EE13E020E030E044
:1019F000AE01495F5F4FBE016F5F7F4FCE010D9615
:101A00000E949B08BE01635F7F4FCE0143960E94F8
:101A10005703CE010D960E949003CE0101960E94BD
:101A20009003CE0107960E94900360ED71E0CE0115
:101A300001960E94AF03BE016F5F7F4FCE014396B8
:101A40000E940D038C01CE0101960E949003CE01ED
:101A500043960E9490030F3F1F4F39F063EB72E0F3
:101A60008BE793E00E9495040CC065EC72E002C025
:101A70006AED72E08BE793E00E9495040E94630890
:101A80005ACF0E941F050E948A01FBCF8CE191E092
:101A900090931F0480931E048EE194E00C944D08F3
:101AA00010927E0310927D0388EE93E0A0E0B0E0F8
:101AB00080937F0390938003A0938103B09382036C
:101AC0002AE031E030937C0320937B0325EC30E067
:101AD000309388032093870324EC30E030938A030B
:101AE0002093890320EC30E030938C0320938B0308
:101AF00021EC30E030938E0320938D0322EC30E014
:101B00003093900320938F0326EC30E030939203C0
:101B100020939103109294031092950310929603D0
:101B200010929703109221041092200480932204B3
:101B300090932304A0932404B09325048CE191E0B6
:101B400090931F0480931E04109235041092340465
:101B5000109237041092360410923904109238040F
:101B600010923B0410923A0460913C046E7F6D7FAA
:101B700060933C046695617081E0682787E00E946D
:101B8000630B61E087E00E94AF0BE5EBF0E0E491CE
:101B9000E0932E04E1EAF0E0E491F0E0EE0FFF1FA5
:101BA000EA57FF4F859194919093300480932F04CE
:101BB00060E084E00E94AF0B80913C0481FD04C092
:101BC00061E084E00E94630B84E080932A04E2EBEE
:101BD000F0E0E491E0932B04EEE9F0E0E491F0E032
:101BE000EE0FFF1FE057FF4F8591949190932D04C6
:101BF00080932C048EE194E090931D0480931C0448
:101C00008DE991E090933B0480933A042DEB30E012
:101C100030933504209334042BE931E030933704BA
:101C2000209336042CE231E03093390420933804B9
:101C3000209168002460209368002DE630E0309306
:101C400032042093310420E1209333040197F1F70B
:101C500080911A0490911B0424E08E319207E1F0E8
:101C6000009711F00E944D0880913C048E7F809374
:101C70003C0410921904109218048EE194E09093A1
:101C80001B0480931A04E0913104F0913204908196
:101C900080913304892B80838CE194E00C940305BC
:101CA0001F93FC0199278827BC01E89411911032F9
:101CB000E9F3193010F01E30C8F31B3251F01D3219
:101CC00049F4689406C00E94770E610F711D811D52
:101CD000911D119110531A30B0F33EF490958095F8
:101CE000709561957F4F8F4F9F4F1F910895592F8A
:101CF000482F372F262F660F771F881F991F660FD3
:101D0000771F881F991F620F731F841F951F660F0F
:101D1000771F881F991F08952F923F924F925F92CD
:101D20006F927F928F929F92AF92BF92CF92DF92EB
:101D3000EF92FF920F931F93CF93DF93CDB7DEB750
:101D4000CA1BDB0B0FB6F894DEBF0FBECDBF0994E4
:101D50002A88398848885F846E847D848C849B843B
:101D6000AA84B984C884DF80EE80FD800C811B8149
:101D7000AA81B981CE0FD11D0FB6F894DEBF0FBE78
:101D8000CDBFED010895A1E21A2EAA1BBB1BFD01D8
:101D90000DC0AA1FBB1FEE1FFF1FA217B307E4074A
:101DA000F50720F0A21BB30BE40BF50B661F771FA2
:101DB000881F991F1A9469F7609570958095909582
:101DC0009B01AC01BD01CF01089597FB072E16F4CE
:101DD000009407D077FD09D00E94F90E07FC05D0CA
:101DE0003EF4909581959F4F0895709561957F4F32
:101DF0000895AA1BBB1B51E107C0AA1FBB1FA61752
:101E0000B70710F0A61BB70B881F991F5A95A9F7A3
:101E100080959095BC01CD010895EE0FFF1F0590B0
:101E2000F491E02D0994CF93DF938230910510F463
:101E300082E090E0E0913F04F091400420E030E047
:101E4000C0E0D0E0309711F1408151814817590727
:101E5000C0F04817590761F482819381209719F0E7
:101E60009B838A832BC09093400480933F0426C0B9
:101E70002115310519F04217530718F49A01BE01D4
:101E8000DF01EF010280F381E02DDCCF2115310568
:101E900009F1281B390B2430310590F412968D91ED
:101EA0009C9113976115710521F0FB019383828347
:101EB00004C09093400480933F04FD01329644C0D7
:101EC000FD01E20FF31F81939193225031092D936D
:101ED0003C933AC020913D0430913E04232B41F4C1
:101EE000209102013091030130933E0420933D0480
:101EF00020910001309101012115310541F42DB7E8
:101F00003EB74091040150910501241B350BE0912F
:101F10003D04F0913E04E217F307A0F42E1B3F0BA3
:101F20002817390778F0AC014E5F5F4F241735074B
:101F300048F04E0F5F1F50933E0440933D04819341
:101F4000919302C0E0E0F0E0CF01DF91CF910895DE
:101F50000F931F93CF93DF93009709F48CC0FC017C
:101F600032971382128200913F04109140040115B0
:101F7000110581F420813181820F931F20913D044E
:101F800030913E042817390779F5F0933E04E09329
:101F90003D0471C0D80140E050E0AE17BF0750F4D7
:101FA00012962D913C911397AD012115310509F140
:101FB000D901F3CF9D01DA013383228360817181DE
:101FC000860F971F8217930769F4EC0128813981E6
:101FD000260F371F2E5F3F4F318320838A819B81DD
:101FE00093838283452B29F4F0934004E0933F04CC
:101FF00042C01396FC93EE931297ED0149915991CB
:102000009E01240F351FE217F30771F4808191813F
:10201000840F951F029611969C938E9382819381D3
:1020200013969C938E931297E0E0F0E0D8011296FD
:102030008D919C911397009719F0F8018C01F6CFC0
:102040008D919C9198012E5F3F4F820F931F20919D
:102050003D0430913E042817390769F4309729F47C
:102060001092400410923F0402C013821282109317
:102070003E0400933D04DF91CF911F910F9108958D
:10208000A0E0B0E0E6E4F0E10C94900EEC010097E3
:1020900021F4CB010E94130FB8C0FC01E60FF71F1B
:1020A0009C0122503109E217F30708F4ACC0D901B2
:1020B0000D911C91119706171707B0F00530110507
:1020C00008F49FC0C80104978617970708F499C0C1
:1020D00002501109061B170B019311936D937C930A
:1020E000CF010E94A80F8DC05B01A01AB10A4C015C
:1020F000800E911EA0913F04B091400440E050E05A
:10210000E12CF12C109709F44AC0A815B905D1F5B6
:102110006D907C901197630182E0C80ED11CCA14A7
:10212000DB0480F1A3014A195B096A0182E0C80E51
:10213000D11C1296BC9012971396AC91B5E0CB16B9
:10214000D10440F0B282A38351834083D9016D93BF
:102150007C930AC00E5F1F4FC301800F911FF901CE
:1021600091838083EB2DFA2FE114F10431F0D70134
:102170001396FC93EE93129744C0F0934004E093BF
:102180003F043FC08D919C9111974817590708F45F
:10219000AC017D0112960D90BC91A02DB3CF809122
:1021A0003D0490913E0488159905E1F446175707C0
:1021B000C8F48091000190910101009741F48DB71E
:1021C0009EB74091040150910501841B950BE817BF
:1021D000F907C8F4F0933E04E0933D04F9017183DC
:1021E00060830FC0CB010E94130F7C01009759F050
:1021F000A801BE010E940F11CE010E94A80FC701C5
:1022000004C0CE0102C080E090E0CDB7DEB7EEE0C2
:102210000C94AC0E81E090E0F8940C944411FB0116
:10222000DC0102C001900D9241505040D8F7089552
:10223000FC018191861721F08823D9F79927089509
:102240003197CF010895FB01DC0101900D92002030
:10225000E1F70895FB0151915523A9F0BF01DC017D
:102260004D9145174111E1F759F4CD01019000203E
:1022700049F04D9140154111C9F3FB014111EFCFD8
:1022800081E090E00197089510E0C2E6D0E004C03C
:10229000FE010E940D0F2196C336D107C9F7F894AD
:0222A000FFCF6E
:1022A2000000410480000000000021018E00B900FE
:1022B2006801EA00C800DC0000000000AD018E00E9
:1022C2003B02AC01010219029401474554202F75CB
:1022D20074632F6E6F7720485454502F312E310D76
:1022E2000A486F73743A207777772E74696D656147
:1022F20070692E6F72670D0A4163636570742D45B4
:102302006E636F64696E673A20677A69702C6465E0
:10231200666C6174650D0A557365722D4167656E51
:10232200743A455350383236360D0A436F6E74652F
:102332006E742D547970653A6170706C6963617462
:10234200696F6E2F6A736F6E0D0A0D0A00777777C9
:102352002E74696D656170692E6F72670041542B2E
:1023620043495053454E443D003E0053454E4420A0
:102372004F4B0053656E642064617461205B4F4B68
:102382005D0053656E642064617461205B45525246
:102392005D0043726561746520544350205B455271
:1023A200525D002B4950442C005265636569766585
:1023B200643A5B005D0D0A0041542B434950434C83
:1023C2004F53450052656C6561736520544350203C
:1023D2005B4F4B5D0052656C6561736520544350E1
:1023E200205B4552525D0053657269616C20636FD8
:1023F2006E6E656374696F6E207365747570205BB1
:10240200444F4E455D005769466920736574757087
:10241200205B53544152545D004D794B6579004D18
:102422007953534944004A6F696E204150207375B5
:1024320063636573730D0A0041542B4349504D5534
:10244200583D004C696E6B206973206275696C643B
:1024520065640057694669207365747570205B4432
:102462004F4E455D0057694669207365747570204B
:102472005B4D5558204552525D005769466920739D
:1024820065747570205B4150204552525D00415485
:102492002B43574A41503D2200222C2200464149FB
:1024A2004C005443500041542B4349505354415221
:1024B200543D2200222C00414C52454144592043B4
:0E24C2004F4E4E454354004552524F520000BB
:00000001FF
