:100000000C9461000C947E000C947E000C947E0095
:100010000C947E000C947E000C947E000C947E0068
:100020000C947E000C947E000C947E000C947E0058
:100030000C947E000C947E000C947E000C947E0048
:100040000C94FC010C947E000C947E000C947E00B9
:100050000C947E000C947E000C947E000C947E0028
:100060000C947E000C947E00000000002400270009
:100070002A0000000000250028002B0000000000DE
:1000800023002600290004040404040404040202DA
:100090000202020203030303030301020408102007
:1000A0004080010204081020010204081020000012
:1000B0000008000201000003040700000000000027
:1000C000000011241FBECFEFD8E0DEBFCDBF11E08E
:1000D000A0E0B1E0E8E7F7E002C005900D92A030A3
:1000E000B107D9F721E0A0E0B1E001C01D92A03135
:1000F000B207E1F70E9446020C94BA030C94000088
:10010000833081F028F4813099F08230A1F0089595
:100110008730A9F08830B9F08430D1F48091800024
:100120008F7D03C0809180008F7780938000089539
:1001300084B58F7702C084B58F7D84BD089580918A
:10014000B0008F7703C08091B0008F7D8093B000A6
:100150000895CF93DF93282F30E0F901E255FF4F48
:100160008491F901E656FF4FD491F901EA57FF4F08
:10017000C491CC2391F081110E948000EC2FF0E01B
:10018000EE0FFF1FE458FF4FA591B491EC91ED23C2
:1001900081E090E021F480E002C080E090E0DF9117
:1001A000CF9108951F93CF93DF93282F30E0F9016B
:1001B000E255FF4F8491F901E656FF4FD491F901C2
:1001C000EA57FF4FC491CC23C9F0162F81110E942A
:1001D0008000EC2FF0E0EE0FFF1FEE58FF4FA591CF
:1001E000B4918FB7F894111105C09C91ED2FE09553
:1001F000E92302C0EC91ED2BEC938FBFDF91CF91FF
:100200001F910895CF93DF9390E0FC01E656FF4FD6
:100210002491FC01EA57FF4F8491882361F190E01B
:10022000880F991FFC01E859FF4FC591D491FC013B
:10023000EE58FF4FA591B491611109C09FB7F89492
:100240008881209582238883EC912E230BC0623015
:1002500061F49FB7F8943881822F80958323888337
:10026000EC912E2B2C939FBF06C08FB7F894E8819A
:100270002E2B28838FBFDF91CF9108951F93CF93AB
:10028000DF93182FEB0161E00E940201209711F427
:1002900060E004C0CF3FD10539F461E0812FDF91E8
:1002A000CF911F910C94D200E12FF0E0E255FF4F67
:1002B000E491E330F9F048F4E130B9F0E230A1F52F
:1002C00084B5806284BDC8BD34C0E730E9F0E83051
:1002D00019F1E43049F580918000806280938000BC
:1002E000D0938B00C0938A0024C084B5806884BDFD
:1002F000C7BD1FC080918000806880938000D0932C
:100300008900C093880015C08091B00080688093F8
:10031000B000C093B3000DC08091B00080628093A4
:10032000B000C093B40005C0C038D1050CF0B5CF03
:10033000AFCFDF91CF911F9108953FB7F89480918F
:100340000C0190910D01A0910E01B0910F0126B505
:10035000A89B05C02F3F19F00196A11DB11D3FBFFD
:10036000BA2FA92F982F8827820F911DA11DB11D8B
:10037000BC01CD0142E0660F771F881F991F4A9587
:10038000D1F708958F929F92AF92BF92CF92DF9252
:10039000EF92FF926B017C010E949D014B015C0179
:1003A000C114D104E104F104F1F00E949D01DC01CB
:1003B000CB0188199909AA09BB09883E9340A10578
:1003C000B10570F321E0C21AD108E108F10888EE06
:1003D000880E83E0981EA11CB11CC114D104E10455
:1003E000F10419F7DDCFFF90EF90DF90CF90BF9031
:1003F000AF909F908F9008951F920F920FB60F921B
:1004000011242F933F938F939F93AF93BF9380912A
:10041000080190910901A0910A01B0910B0130915E
:10042000070123E0230F2D3720F40196A11DB11DF4
:1004300005C026E8230F0296A11DB11D20930701D8
:100440008093080190930901A0930A01B0930B01D6
:1004500080910C0190910D01A0910E01B0910F01BE
:100460000196A11DB11D80930C0190930D01A093E5
:100470000E01B0930F01BF91AF919F918F913F916A
:100480002F910F900FBE0F901F901895789484B500
:10049000826084BD84B5816084BD85B5826085BD80
:1004A00085B5816085BD80916E00816080936E000E
:1004B0001092810080918100826080938100809100
:1004C00081008160809381008091800081608093B1
:1004D00080008091B10084608093B1008091B00071
:1004E00081608093B00080917A00846080937A006C
:1004F00080917A00826080937A0080917A00816096
:1005000080937A0080917A00806880937A001092BC
:10051000C10061E083E00E94020161E085E00E9489
:10052000020161E086E00E94020160E082E00E9438
:10053000020160E084E00E94020161E08DE00E941F
:1005400002016FEF70E083E00E943E016FEF70E008
:1005500085E00E943E016FEF70E086E00E943E0160
:1005600080E4B82EC12CD12C7601CA9400E010E0B2
:1005700082E00E94A900909306018093050184E027
:100580000E94A9009093040180930301B0927C0023
:1005900080917A00806480937A0080917A0086FD51
:1005A000FCCF809178002091790090E0922B90937D
:1005B0000201809301012091050130910601213053
:1005C000310509F06AC0843F91400CF08BC08091E6
:1005D0000001811187C061E08DE00E94D200412CB2
:1005E000512C3201C0E0D0E0CF3FD10531F02CF0EA
:1005F000C43681E0D8074CF512C0C301B201A7018F
:1006000096010E947903CA01B90161507F4F8F4F53
:100610009F4F83E00E943E01C436D1054CF1C301D7
:10062000B20164567C498F4F9F4FA70196010E94EB
:100630007903CA01B90161507F4F8F4F9F4F85E009
:100640000E943E01C83CD1059CF0C301B201685C28
:1006500078438F4F9F4FA70196010E947903CA01EB
:10066000B90161507F4F8F4F9F4F86E00E943E013E
:1006700067E070E080E090E00E94C20121962FEFD9
:10068000421A510861087108C83C81E0D80709F096
:10069000ABCF81E08093000125C0809100018111E2
:1006A00007C01092000160E08DE00E94D2001AC0E5
:1006B000C0E0D0E0BE0183E00E943E01BE0185E0C3
:1006C0000E943E01BE0186E00E943E016AE070E0A9
:1006D00080E090E00E94C2012196C11521E0D2077E
:1006E00049F7DFCF0115110509F442CF0E94000040
:1006F0003FCF052E97FB1EF400940E94900357FDF8
:1007000007D00E94980307FC03D04EF40C9490038A
:1007100050954095309521953F4F4F4F5F4F08952D
:1007200090958095709561957F4F8F4F9F4F08955D
:10073000A1E21A2EAA1BBB1BFD010DC0AA1FBB1FE5
:10074000EE1FFF1FA217B307E407F50720F0A21B57
:10075000B30BE40BF50B661F771F881F991F1A94C4
:1007600069F760957095809590959B01AC01BD01EE
:08077000CF010895F894FFCFBA
:00000001FF
