:100000000C9461000C947E000C947E000C947E0095
:100010000C947E000C947E000C947E000C947E0068
:100020000C947E000C947E000C947E000C947E0058
:100030000C947E000C947E000C947E000C947E0048
:100040000C9417020C947E000C947E000C947E009D
:100050000C947E000C947E000C947E000C947E0028
:100060000C947E000C947E00000000080002010049
:100070000003040700000000000000000102040863
:100080001020408001020408102001020408102002
:10009000040404040404040402020202020203032E
:1000A00003030303000000002300260029000000D2
:1000B0000000250028002B0000000000240027007D
:1000C0002A0011241FBECFEFD8E0DEBFCDBF11E064
:1000D000A0E0B1E0E8E4F9E002C005900D92AE3096
:1000E000B107D9F721E0AEE0B1E001C01D92AE3119
:1000F000B207E1F70E9408020C94A2040C940000DD
:1001000061E083E00E949E0361E085E00E949E031F
:1001100061E086E00E949E0360E082E00E949E0310
:1001200060E084E00E949E0361E08DE00E949E03F7
:100130006FEF70E083E00E9416036FEF70E085E0E0
:100140000E9416036FEF70E086E00C9416034F9246
:100150005F926F927F928F929F92AF92BF92CF9257
:10016000DF92EF92FF920F931F93CF93DF938091D3
:100170001001811198C061E08DE00E94D70380904A
:10018000080190900901880C991C8FEF880E911C32
:10019000412C512C3201E201841495040CF483C0EB
:1001A0008FEF4816510409F0D0F41F921F921F924E
:1001B0001F92A12CB12C6501AA94E12CF12C87018E
:1001C000EA9420E030E0A901C301B2010E94C0011D
:1001D00083E00E9416030F900F900F900F902091D4
:1001E000080130910901C217D30714F179018FEF8B
:1001F000E80EF11CEC16FD06DCF00027F7FC00957C
:10020000102F442737FD4095542F1F921F921F92A5
:100210001F92A12CB12C6501AA94C301B2010E94C6
:10022000C00185E00E9416030F900F900F900F9071
:100230002091080130910901220F331FC217D30703
:1002400014F179018FEFE80EF11CEC16FD06DCF0DD
:100250000027F7FC0095102F442737FD4095542FB9
:100260001F921F921F921F92A12CB12C6501AA947C
:10027000C301B2010E94C00186E00E9416030F90E4
:100280000F900F900F9060910A0170910B018827D9
:1002900077FD8095982F0E9484028FEF481A580AA4
:1002A000680A780A78CFDF91CF911F910F91FF9064
:1002B000EF90DF90CF90BF90AF909F908F907F9006
:1002C0006F905F904F900895CF93DF9380911001CE
:1002D000811108C01092100160E08DE0DF91CF9194
:1002E0000C94D703C0E0D0E0BE0183E00E94160367
:1002F000BE0185E00E941603BE0186E00E9416033F
:100300006091060170910701882777FD8095982FED
:100310000E9484022196C11581E0D80729F7DACF1F
:1003200082E00E940D04909314018093130184E0F5
:100330000E940D0490931201809311018EE00E949F
:10034000F90290930F0180930E01209113013091D7
:1003500014012130310589F4209104013091050107
:100360008217930764F480911001811108C00E94E4
:10037000A70081E08093100108950C946401089512
:100380004F925F926F927F92AF92BF92CF92DF9225
:10039000EF92FF920F931F93CF93DF93CDB7DEB70A
:1003A00029013A01621B730B840B950B29893A8949
:1003B0004B895C892A193B094C095D09298B3A8BC9
:1003C0004B8B5C8B9B01AC0169897A898B899C89F9
:1003D0000E943704E418F50806091709A8019701D7
:1003E0000E9447042A0D3B1D4C1D5D1DCA01B90129
:1003F000DF91CF911F910F91FF90EF90DF90CF9001
:10040000BF90AF907F906F905F904F900895089548
:100410000E94BE020E9407020E948000C0E0D0E05D
:100420000E9490012097E1F30E940000F9CF1F92F3
:100430000F920FB60F9211242F933F938F939F9398
:10044000AF93BF938091160190911701A09118016D
:10045000B09119013091150123E0230F2D3720F4BD
:100460000196A11DB11D05C026E8230F0296A11D0E
:10047000B11D209315018093160190931701A0934D
:100480001801B093190180911A0190911B01A0915C
:100490001C01B0911D010196A11DB11D80931A018F
:1004A00090931B01A0931C01B0931D01BF91AF91CC
:1004B0009F918F913F912F910F900FBE0F901F90A2
:1004C00018953FB7F89480911A0190911B01A09163
:1004D0001C01B0911D0126B5A89B05C02F3F19F046
:1004E0000196A11DB11D3FBF6627782F892F9A2F36
:1004F000620F711D811D911D42E0660F771F881FDD
:10050000991F4A95D1F708958F929F92AF92BF920B
:10051000CF92DF92EF92FF926B017C010E94610209
:100520004B015C01C114D104E104F104F1F00E941B
:1005300036040E946102681979098A099B09683E9C
:1005400073408105910570F321E0C21AD108E108DA
:10055000F10888EE880E83E0981EA11CB11CC1141E
:10056000D104E104F10429F7DDCFFF90EF90DF9093
:10057000CF90BF90AF909F908F900895789484B55E
:10058000826084BD84B5816084BD85B5826085BD8F
:1005900085B5816085BDEEE6F0E080818160808375
:1005A000E1E8F0E010828081826080838081816058
:1005B0008083E0E8F0E0808181608083E1EBF0E01F
:1005C000808184608083E0EBF0E0808181608083C3
:1005D000EAE7F0E0808184608083808182608083AC
:1005E0008081816080838081806880831092C100D7
:1005F00008958E3008F08E50877020910C0190E4A1
:10060000299F90011124822B80937C0080917A0095
:10061000806480937A0080917A0086FDFCCF80917F
:1006200078002091790090E0922B08951F93CF934A
:10063000DF93182FEB0161E00E949E03209711F4D5
:1006400060E004C0CF3FD10539F461E0812FDF9134
:10065000CF911F910C94D703E12FF0E0E859FF4FA1
:10066000E491E330F9F048F4E130B9F0E230A1F57B
:1006700084B5806284BDC8BD34C0E730E9F0E8309D
:1006800019F1E43049F58091800080628093800008
:10069000D0938B00C0938A0024C084B5806884BD49
:1006A000C7BD1FC080918000806880938000D09378
:1006B0008900C093880015C08091B0008068809345
:1006C000B000C093B3000DC08091B00080628093F1
:1006D000B000C093B40005C0C038D1050CF0B5CF50
:1006E000AFCFDF91CF911F910895833081F028F42F
:1006F000813099F08230A1F008958730A9F08830D8
:10070000B9F08430D1F4809180008F7D03C0809156
:1007100080008F7780938000089584B58F7702C022
:1007200084B58F7D84BD08958091B0008F7703C01C
:100730008091B0008F7D8093B0000895CF93DF93B8
:1007400090E0FC01E458FF4F2491FC01E057FF4F7B
:100750008491882349F190E0880F991FFC01E854A7
:10076000FF4FA591B49182559F4FFC01C591D49143
:100770009FB7611108C0F8948C91209582238C93C7
:10078000888182230AC0623051F4F8948C91322F10
:10079000309583238C938881822B888304C0F894BE
:1007A0008C91822B8C939FBFDF91CF9108950F93F3
:1007B0001F93CF93DF931F92CDB7DEB7282F30E082
:1007C000F901E859FF4F8491F901E458FF4F149162
:1007D000F901E057FF4F04910023C9F0882321F06D
:1007E00069830E9475036981E02FF0E0EE0FFF1F1F
:1007F000E255FF4FA591B4919FB7F8948C91611188
:1008000003C01095812301C0812B8C939FBF0F9053
:10081000DF91CF911F910F910895CF93DF93282FF0
:1008200030E0F901E859FF4F8491F901E458FF4F96
:10083000D491F901E057FF4FC491CC2391F081117D
:100840000E947503EC2FF0E0EE0FFF1FEC55FF4FF9
:10085000A591B4912C912D2381E090E021F480E0CA
:1008600002C080E090E0DF91CF9108950895DB0110
:100870008F939F930E946604BF91AF91A29F800DBA
:10088000911DA39F900DB29F900D11240895052EE8
:1008900097FB1EF400940E945E0457FD07D00E944F
:1008A000710407FC03D04EF40C945E0450954095FF
:1008B000309521953F4F4F4F5F4F0895909580950C
:1008C000709561957F4F8F4F9F4F08950E949304BD
:1008D000A59F900DB49F900DA49F800D911D112494
:1008E0000895A1E21A2EAA1BBB1BFD010DC0AA1F71
:1008F000BB1FEE1FFF1FA217B307E407F50720F089
:10090000A21BB30BE40BF50B661F771F881F991F03
:100910001A9469F760957095809590959B01AC014C
:10092000BD01CF010895A29FB001B39FC001A39F55
:10093000700D811D1124911DB29F700D811D112418
:08094000911D0895F894FFCF0A
:0E09480001000000F4010A0064000700010035
:00000001FF
